:100000000C942A000C9447000C9447000C94470071
:100010000C9447000C9447000C9447000C94830CFC
:100020000C9447000C9447000C94D70B0C94470099
:100030000C9447000C9447000C9447000C94470024
:100040000C9447000C9447000C9447000C94470014
:100050000C94470011241FBECFE5D8E0DEBFCDBF12
:1000600010E0A0E6B0E0ECE5F2E202C005900D92EF
:10007000AC3CB107D9F723E0ACECB0E001C01D9275
:10008000AF39B207E1F70E9473080C942C110C945D
:100090000000EF92FF920F931F93CF93DF938C0199
:1000A000EB017B01E40EF11CCE15DF0591F0F89415
:1000B000CE010E94E510F8019081982788E02CE895
:1000C000969508F492278A95D9F79083789421968B
:1000D000EBCFDF91CF911F910F91FF90EF9008959B
:1000E000FF920F931F93CF93DF93F82E162F042FB9
:1000F00085E090E00E94C40FEC01892B11F487E0A9
:100100000DC0E1EEF0E080E090E021913191232BF1
:1001100041F001968A3F9105C1F789E080939803E9
:100120002EC02091D7022F7D2093D702880F991FD0
:10013000FC01EF51FF4FD183C083FB821C830883F6
:10014000F894612F70E001110BC043E0660F771F38
:100150004A95E1F7FB01E459FF4F818192810AC082
:1001600033E0660F771F3A95E1F7FB01E459FF4F43
:10017000838194810E94ED109A8389837894DF9122
:10018000CF911F910F91FF90089587B3806B87BB2C
:1001900088B3806B88BB8EE58DB908958FB988EEE2
:1001A00093E09093DE028093DD0277990BC08091FB
:1001B000DD029091DE02892BC1F786E08093DE009C
:1001C0008FEF08958FB10895C49880EA0E94CE0001
:1001D00080E00E94CE00C49A0895CF93C82FC4989F
:1001E00083E00E94CE008C2F0E94CE0080E00E940F
:1001F000CE00C49ACF9108951F93CF93DF93182F09
:10020000D62FC42FC49885E00E94CE00812F0E9473
:10021000CE008D2F0E94CE008C2F0E94CE00C49A5B
:10022000DF91CF911F910895CF93DF93D82FC62FE1
:10023000C49882E00E94CE008D2F0E94CE008C2FA9
:100240000E94CE00C49ADF91CF91089588EE93E08A
:100250009093DB028093DA028091DF0081110BC062
:100260008091DA029091DB02892BB1F782E08093D2
:10027000DE008FEF0895F8948091DF008150809325
:10028000DF0078948091D6029091D6029F5F909380
:10029000D6029A3011F41092D60208959F92AF922E
:1002A000BF92CF92DF92EF92FF920F931F93CF9363
:1002B000DF93D82FC92FB62E0E9426019DE0899F7B
:1002C000F0011124EC5EFC4FC080D180E280F3800D
:1002D0000D2F1C2F9DE0A92E2DE0922EB11003C0F2
:1002E0008D2F9C2F41C040E0A89EF0011124EC5EB0
:1002F000FC4FBF016C5F7F4FDB018C91242F30E0FE
:10030000481760F4CF01820F931FDC0115968C9182
:10031000200F311FD9018C934F5FEECF200F311F7B
:10032000D90111978C918823D9F28481080F111D6E
:100330000E9426019091DE00911114C0989EF00158
:100340001124EC5EFC4F4081518162817381BA942B
:10035000C416D506E606F70609F283E08093DE00B0
:1003600080E002C080E090E0DF91CF911F910F917B
:10037000FF90EF90DF90CF90BF90AF909F90089547
:100380008F929F92AF92BF92CF92DF92EF92FF92A5
:100390000F931F93CF93DF936B017C01B42E922EAA
:1003A000A32ED02F0E94E4008C2C8294880C50EE57
:1003B0008522902F9870892AB701A601EBE17695E6
:1003C000679557954795EA95D1F74370842A86FF3C
:1003D00009C084FF0BC082FF0DC085E08093DE0062
:1003E0008FEF61C0C3E003E010E007C0C2E002E0AD
:1003F00010E003C0C1E001E010E0F894C49882E08E
:100400000E94CE00C80102968295807F0E94CE0095
:100410008D2F83700E94CE00D701C60123E0B695D0
:10042000A795979587952A95D1F70E94CE00882D9C
:100430000E94CE00D701C60133E1B695A7959795E6
:1004400087953A95D1F70E94CE00D701C6014BE0BF
:10045000B695A795979587954A95D1F70E94CE00B6
:100460008B2D0E94CE00E92CFA2C10E01B1549F0D0
:10047000183039F0F70181917F010E94CE001F5F93
:10048000F5CFC49AD2FF0DC0C4982FEF2C0F81E096
:1004900090E001C0880F2A95EAF780680E94CE009C
:1004A000C49A78948C2FDF91CF911F910F91FF9078
:1004B000EF90DF90CF90BF90AF909F908F90089576
:1004C0008F929F92AF92BF92EF92FF920F931F93E2
:1004D000CF93DF937C01C62F49015A01162F169541
:1004E00016951695D0E0D11791F00FEF970148E0DF
:1004F000C501B4010E94C0018091DE00882311F083
:100500008FEF13C088E0E80EF11CDF5FECCF4C2FBB
:10051000477031F00FEF9701C501B4010E94C0018F
:100520008091DE008111ECCF81E0DF91CF911F91AE
:100530000F91FF90EF90BF90AF909F908F90089594
:100540002F923F924F925F926F927F928F929F92E3
:10055000AF92BF92CF92DF92EF92FF920F931F93D1
:10056000CF93DF9300D000D01F92CDB7DEB71C0130
:100570008B015D834C8379010E94E40080FD07C0FC
:100580000E94E40081FD05C080E090E091C080E021
:1005900001C081E0C49890E0880F991F880F991FCF
:1005A00080690E94CE0080E00E94CE00882E912CAF
:1005B000A12CB12C80E00E94CE008983482E512CC2
:1005C000612C712C80E00E94CE008A8380E00E9422
:1005D000CE008B8380E00E94CE00EC81FD81808381
:1005E0001D821C82CC80DD80C00ED11E80E00E9466
:1005F000CE00F60180838C819D8101969D838C8342
:10060000089781F7C49A998193FF0BC0EA814E2F16
:1006100050E060E070E0FB818F2F90E0A0E0B0E060
:1006200006C080E090E0DC0140E050E0BA01F1015A
:10063000108211821282138229812370A22B762FBD
:10064000652F542F4427482B592B6A2B7B2BABE06B
:10065000440F551F661F771FAA95D1F7B5E0769412
:10066000679457944794BA95D1F783E0880C991C06
:10067000AA1CBB1C8A95D1F784289528A628B728E0
:10068000482959296A297B294083518362837383CE
:10069000F70110828DE20E94ED00807CF7019081CD
:1006A000892B808340E060EC8DE20E94FC00C80151
:1006B0000F900F900F900F900F90DF91CF911F919F
:1006C0000F91FF90EF90DF90CF90BF90AF909F90F1
:1006D0008F907F906F905F904F903F902F900895F4
:1006E000CF93DF931F92CDB7DEB719824091E00020
:1006F0006091E0009091E0008DE0849FA0011124C2
:10070000485E5C4F869FB0011124675E7C4F899FD5
:10071000C00111249E012F5F3F4F8C5E9C4F0E94B1
:10072000A0028091E0008F5F8093E0008A3011F496
:100730001092E0008091DF008F5F8093DF008A30AD
:1007400019F41092DF0003C08981807C29F085E0D4
:100750008093DE008FEF01C081E00F90DF91CF9199
:100760000895CF92DF92EF92FF92CF93DF93D82F2D
:100770006A017B01DB01CA012BE1B695A79597952C
:1007800087952A95D1F7C82FC370842F8295880F3B
:10079000807EC82BC49882E00E94CE008D2F0E94DC
:1007A000CE00D701C60133E0B695A79597958795FA
:1007B0003A95D1F70E94CE008C2F0E94CE00D7012F
:1007C000C60143E1B695A795979587954A95D1F7C8
:1007D0000E94CE00D701C6015BE0B695A79597951C
:1007E00087955A95D1F70E94CE00C49ADF91CF9198
:1007F000FF90EF90DF90CF900895CF92DF92EF922D
:10080000FF92CF93DF93D82F6A017B01C42FC2954B
:10081000CC0FC07E2870C22B8BE1769567955795DB
:1008200047958A95D1F74370C42BC49882E00E9403
:10083000CE008D2F0E94CE00D701C60123E0B695D1
:10084000A795979587952A95D1F70E94CE008C2F72
:100850000E94CE00D701C60133E1B695A7959795C2
:1008600087953A95D1F70E94CE00D701C6014BE09B
:10087000B695A795979587954A95D1F70E94CE0092
:10088000C49ADF91CF91FF90EF90DF90CF900895C1
:10089000FC018081843678F481818D3060F482811E
:1008A000803248F48381883130F484818C3318F4A9
:1008B00085818C3328F082E08093980381E008954D
:1008C00086E0A6E6B0E001900D928A95E1F780E01F
:1008D0000895DC0196E0E6E6F0E001900D929A952D
:1008E000E1F70895DF92EF92FF920F931F93CF935A
:1008F000DF93182FD62E042FF89485E090E00E9405
:10090000C40F7C01892B11F487E00DC0EFEDF2E0FC
:10091000C0E0D0E081919191892B41F02196C431C2
:10092000D105C1F788E0809398033BC08091D7023E
:100930008F7B8093D7028091D70280FD0DC01092EB
:100940009A031092990387E093E00E9469048091D2
:10095000D70281608093D702CC0FDD1FC152DD4FDB
:10096000F982E882F7011083D1820283023019F400
:10097000148213820CC0013019F48DEC91E002C096
:100980008BEC91E00E94ED10F7019483838388E063
:10099000189FF0011124E457FF4F87818F5F8783F1
:1009A0007894DF91CF911F910F91FF90EF90DF909E
:1009B0000895CF93C82F0E94C500BC9AC49AC498CA
:1009C00080EC0E94CE00C49A40E860E889E20E9470
:1009D000FC0065E08AE20E94140169E889E20E9455
:1009E000140162E088E20E9414014FEF50E060E0E1
:1009F00070E080E20E94B10327EF40E050E0BA01CE
:100A000080E00E94FD0381ED91E00E94E510482FF7
:100A100050E060E070E027EF84E00E94FD0340E2D8
:100A200060E680E60E94FC004FEF5FEFBA0184E2CF
:100A30000E94B10327EF40E050E0BA0188E10E9434
:100A4000FD0340E260E680E70E94FC0043E063E0D3
:100A50008BE20E94FC004C2F6FEF8FE00E94FC00A5
:100A60008EE00E94ED00807EC81302C0C1E001C08C
:100A7000CFEF44E064E080E60E94FC008C2FCF9131
:100A800008950F931F93CF93DF93C82F8B01F89492
:100A900080EA91E00E94E510882311F0815001C0A6
:100AA0008FE18C1718F48C1B805E01C08C1B9DE0BD
:100AB000899FE0011124CE01805090400E94E510F2
:100AC000F8018083CE018F5F9F4F0E94E510F801EF
:100AD0008183CE018E5F9F4F0E94E510F8018283D3
:100AE000CE018D5F9F4F0E94E510F8018383CE01F8
:100AF0008C5F9F4F0E94E510F8018483CE018B5FCD
:100B00009F4F0E94E510F8018583CE018A5F9F4FB9
:100B10000E94E510F8018683CE01895F9F4F0E94F5
:100B2000E510F8018783CE01845F9F4F0E94E51096
:100B3000F8018487CE01885F9F4F0E94ED10F80175
:100B400091878087CE01865F9F4F0E94ED10F8014C
:100B5000938782877894DF91CF911F910F910895A9
:100B6000FF920F931F93CF93DF93EC01F89480EAE9
:100B700091E00E94E510F82E8DE0F89E800111248E
:100B80006881C801805090400E940A116981C801A3
:100B90008F5F9F4F0E940A116A81C8018E5F9F4F2D
:100BA0000E940A116B81C8018D5F9F4F0E940A113C
:100BB0006C81C8018C5F9F4F0E940A116D81C80132
:100BC0008B5F9F4F0E940A116E81C8018A5F9F4F01
:100BD0000E940A116F81C801895F9F4F0E940A110C
:100BE0006C85C801845F9F4F0E940A1168857985D2
:100BF000C801885F9F4F0E9417116A857B85C801D5
:100C0000865F9F4F0E94171161E06F0D603209F4FB
:100C100060E080EA91E00E940A111C861F821E8219
:100C20008FEF9FEF9B878A87998788878091D7026C
:100C30008D7F8E7F8093D7027894DF91CF911F9123
:100C40000F91FF900895CF93DF93F894C0E0D0E028
:100C50006FEFCE010E940A112D9681E0C03AD807AD
:100C6000B9F77894DF91CF9108950F931F93CF93A5
:100C7000DF931F92CDB7DEB7182F81ED91E00E9470
:100C8000E510682F70E080E090E0198220919803D1
:100C9000211101C07160112331F074602091D702DD
:100CA00028602093D7022091D70224602093D70296
:100CB00007EF9E012F5F3F4F41E00E94C0010F9060
:100CC000DF91CF911F910F910895CF93DF931F92E2
:100CD000CDB7DEB7198241E061ED71E0CE0101963A
:100CE0000E94490046E06BEC71E0CE0101960E9443
:100CF000490048E063EC71E0CE0101960E94490092
:100D000048E06BEB71E0CE0101960E94490048E09B
:100D100063EB71E0CE0101960E94490048E06BEA66
:100D200071E0CE0101960E94490048E063EA71E05B
:100D3000CE0101960E94490089810F90DF91CF91E9
:100D4000089504B603FE05C066E081EA91E00E94C2
:100D5000F31014BEF89480E88BBB8FE78ABB85EF55
:100D600088BB8FEB87BB8FE085BB84BB82BB8BE0EE
:100D700081BB83BF12BE99E19CBF1FBC8EBD1DBC51
:100D80001CBC17BC16BC1BBC8AEF8ABD19BC18BCA6
:100D900082E189BF0E94C50078948FE097E20197B5
:100DA000F1F700C0000080E00E94D90487FF03C073
:100DB00083E08093980382EA91E00E94E5108F3FE0
:100DC00049F40E946506682F82EA91E00E940A11A8
:100DD0000E9423068091D70280688093D70281B554
:100DE000876081BD81B5886081BD81E090E0089514
:100DF0004F925F926F927F92AF92BF92CF92DF92AB
:100E0000EF92FF920F931F93CF93DF93CDB7DEB78F
:100E100065970FB6F894DEBF0FBECDBF0E942601C6
:100E2000182F81ED91E00E94E51090E0A0E0B0E085
:100E300020919803211105C0C12CD12C7601D394A7
:100E400003C0C12CD12C7601C82AD92AEA2AFB2A50
:100E50002091D70222FD05C040E052E060E070E042
:100E600003C040E050E0BA01C42AD52AE62AF72A96
:100E70002091D70223FF02C06894D2F817FF02C066
:100E800083E003C1A12E012E000CBB082DE012024D
:100E9000F0011124EC5EFC4F40815181628173812D
:100EA00084179507A607B70749F080819181A28131
:100EB000B381892B8A2B8B2B09F0EAC08DE08A9DA8
:100EC000F0018B9DF00D1124EC5EFC4F1581133069
:100ED00009F128F4113059F01230C9F0D5C015309D
:100EE00009F452C0E8F1163009F465C0CDC086811E
:100EF0008B8387818A838085898381858C838285A2
:100F00008D8383858E83CE0101960E9448041E87BF
:100F100041E0BFC080E090E020E061E070E0FC01D3
:100F200033E0EE0FFF1F3A95E1F7E457FF4F3081B2
:100F3000AB01082E01C0440F0A94EAF731FF02C04A
:100F4000242B02C04095242301968830910539F75F
:100F500083E08E872F8780919803888B43E099C028
:100F6000868194E09E87BE016F5F7F4F0E9441059E
:100F70008B818F878A81888B8981898B8C818A8BF1
:100F80008D818B8B8E8114C086811E87BE016F5F21
:100F90007F4F0E9441059F818885892B8F878D8592
:100FA000888B89859A85998B8A8B8B859C859B8B71
:100FB0008C8B47E06EC0F8944080518062807380D3
:100FC0005524662477241E8784818230E8F1878146
:100FD000608570E0782B77FD04C08BEC91E00E9477
:100FE00004118DE08A9DF0018B9DF00D1124EC5EC3
:100FF000FC4F8185628570E0782B77FD04C08DEC15
:1010000091E00E940411411451046104710469F0DB
:101010008DE08A9DF0018B9DF00D1124EC5EFC4F5C
:10102000668181ED91E00E94F3100E946506682FB1
:1010300082EA91E00E94F31080E00E94D904181621
:101040001CF083E08093980381ED91E00E94E5100D
:101050008F878BEC91E00E94ED10988B8BEC91E0E8
:101060000E94ED10898B8DEC91E00E94ED109A8B1F
:101070008DEC91E00E94ED108B8B789445284628EA
:10108000472879F046E005C084E08093980316C0B5
:1010900040E007EF9E01225F3F4FC701B6010E946B
:1010A000C0018DE08A9DF0018B9DF00D1124EC5E56
:1010B000FC4F8581823011F40C94000065960FB6C8
:1010C000F894DEBF0FBECDBFDF91CF911F910F917E
:1010D000FF90EF90DF90CF90BF90AF907F906F9098
:1010E0005F904F9008950E94A1068FEF9FEF90931D
:1010F0001203809311039093100380930F03C1E0B8
:10110000D0E073E0372EE0E82E2E55245394F4E01F
:101110008F2E912C80919803882341F0F894609150
:10112000980381EA91E00E94F31078942091D9020B
:1011300080E090E0FC0163E0EE0FFF1F6A95E1F7AD
:10114000E457FF4F3081AE01082E01C0440F0A94CE
:10115000EAF730FF02C0242B02C0409524230196F9
:101160008730910539F72093D9029091C40080917E
:10117000DC0290FF08C081608093DC028091DC0279
:1011800021E030E00AC08E7FF7CF91FD17C0842B9D
:101190002F5F3F4F25303105A1F0F90153E0EE0FED
:1011A000FF1F5A95E1F7EC59FF4F9081AE01022ED7
:1011B00001C0440F0A94EAF790FDE7CF40958423DD
:1011C000E7CF8093DC0290919803911103C0806473
:1011D0008093DC0210E004E1812F632D0E94B80FA0
:1011E000911154C08FEC97E00197F1F700C0000017
:1011F0003091DC002091D90280E090E0FC0143E0D6
:10120000EE0FFF1F4A95E1F7E457FF4F408140FD85
:1012100013C0408143FD10C042FD0EC041FF0CC011
:10122000AE01082E01C0440F0A94EAF7311102C042
:10123000242B02C040952423019687309105F1F6B6
:101240002093D9028091C40080FD0EC08091C4001B
:101250008E70823049F48091DC02311102C08160CD
:1012600001C08E7F8093DC0280919803882349F02F
:101270008091DC02311102C0806401C08F7B8093B9
:10128000DC0281E0311180E08093DC00812F602F4F
:101290000E94B80F911174C04091DD002091D902D5
:1012A00080E090E0BC01B3E0660F771FBA95E1F7EC
:1012B000FB01E457FF4F308133FD02C032FF12C003
:1012C000FB01E457FF4F308130FD0CC0BE01082EFA
:1012D00001C0660F0A94EAF7411102C0262B02C032
:1012E00060952623019687309105E1F62093D90277
:1012F0008091C4008C7059F08091C40080FD07C0BB
:101300008091DC02411108C081608093DC028091F1
:10131000DC0221E030E009C08E7FF7CF91FD11C0E3
:101320002F5F3F4F25303105C9F0F901A3E0EE0FE3
:10133000FF1FAA95E1F7EC59FF4F908190FFF0CF86
:10134000EDCFBE01022E01C0660F0A94EAF74111EB
:1013500002C0862BE5CF60958623E2CF8093DC0226
:101360009091D70292FF07C0411102C0806201C074
:101370008F7D8093DC0281E0411180E08093DD006D
:10138000FF24FA94A8958091DF00882351F0CF992B
:1013900065C0A895C09AC1981BBAF89404E010E003
:1013A0002BC0CF9BF4CF829B0E9470032BBA92E09C
:1013B0009A95F1F700C088B3832588BBC09904C013
:1013C0008091D902806802C08091DC028BBB809141
:1013D000D80280FD05C08091D70284FFF8CFD7CF17
:1013E0008091D8028E7F8093D802FA94F110CACFF0
:1013F0001F5F1F3F61F2F0CE81EA91E00E94E5108D
:1014000090E09401201B310B02C0959587952A9599
:10141000E2F780FF09C02BB3CE01002E01C0880F78
:101420000A94EAF7822B0AC09BB39E01002E01C0EA
:10143000220F0A94EAF7822F809589238BBB0150F3
:101440001109D1F67894EFEFF4E32CE0E150F0408D
:101450002040E1F700C000000C9400008091D7020A
:1014600084FF7CC0ECE8EE2EE0E0FE2E00E010E011
:10147000402EC80173E0880F991F7A95E1F7BC01EF
:1014800064577F4F3B01FB01808180FF59C0F89476
:10149000F701818192810E94E510C82EF7018381B6
:1014A00094810E94E510A82EF701858196810E9403
:1014B000E5107894F3019781911142C0882309F4D3
:1014C0003FC0CC2031F08BEC91E00E94ED10892BD5
:1014D00031F442E060E0842D0E94720431C064E087
:1014E000662E712CD12CB12CC30104979601082EC5
:1014F00002C0359527950A94E2F720FF1AC095019E
:1015000002C0359527958A95E2F720FD02C040E09C
:101510000CC0F30153E0EE0FFF1F5A95E1F7E457BB
:10152000FF4F808180FF05C041E0662D842D0E9421
:1015300072043FEF631A730A68E066167104A1F63D
:101540000F5F1F4F78E0E70EF11C0830110509F01E
:101550008FCF8091D7028F7E8093D7028091D70260
:1015600085FFD8CD8091D70286FFD4CD8091D70258
:101570008E7F8093D70281FF0AC08091960390915D
:101580009703892B21F487E093E00E94B0058091B6
:10159000DF0081110E94F8068091D70287FFBACD43
:1015A00004ED10E0D80180E090E09C0143E0220FC0
:1015B000331F4A95E1F724573F4FF901408140FF1F
:1015C00024C04C914F5F4C93433008F4A3CD40812D
:1015D0004260408350929803843070F441B39C0180
:1015E0002C5F3F4FBE0102C0660F771F2A95E2F7BE
:1015F0009B01242B21BB09C044B39E01082E01C0CE
:10160000220F0A94EAF7242B24BB1C920196119610
:101610008830910551F6C39A75E37A95F1F7000089
:1016200020E030E080B393B3482F42954F70892F6C
:10163000807F842B90E0022E02C0959587950A94B6
:10164000E2F780FD25C0D90193E0AA0FBB1F9A9550
:10165000E1F7A457BF4F8C9182608C93509298030E
:10166000243068F441B3C9010496FE0102C0EE0FB4
:10167000FF1F8A95E2F7CF01842B81BB09C044B3D9
:10168000CE01022E01C0880F0A94EAF7842B84BB96
:101690002F5F3F4F2830310529F6C3988FE396E03E
:1016A0000197F1F700C0000020E030E080B393B371
:1016B000482F42954F70892F807F842B90E0022E17
:1016C00002C0959587950A94E2F7F80180FF2CC037
:1016D00080818F5F8083833008F41CCDD90183E043
:1016E000AA0FBB1F8A95E1F7A457BF4F8C91826068
:1016F0008C9350929803243068F441B3C901049646
:10170000BE0102C0660F771F8A95E2F7CB01842BDA
:1017100081BB09C044B3CE01022E01C0880F0A94D8
:10172000EAF7842B84BBF80110822F5F3F4F0F5FD5
:101730001F4F2830310509F0B9CFF89482EA91E0C3
:101740000E94E510182F78940E946506181306C0B1
:101750008091D7028F778093D702DCCCF89465E034
:1017600081EA91E00E94F3107894C09A9EE5A895D2
:10177000CF9902C00C9400009BBBC198FFE728E3FF
:1017800031E0F15020403040E1F700C00000C19A44
:101790001BBA6FE778E381E0615070408040E1F769
:1017A00000C000008091DF00882309F3D1CF1F9291
:1017B0000F920FB60F9211240F931F932F933F9305
:1017C0004F935F936F937F938F939F93AF93BF9349
:1017D000CF93EF93FF938091D80281608093D802DA
:1017E00080E090E0FC0133E0EE0FFF1F3A95E1F757
:1017F000E457FF4FA08120B322952F7030E0082ED0
:1018000002C0359527950A94E2F7217033276A2F95
:10181000617070E02617370799F02091D702206198
:101820002093D70220B322952F7030E0082E02C0FB
:10183000359527950A94E2F7308120FB30F9308303
:1018400001968430910571F6E0EDF0E0C0E061E0D2
:1018500070E023B3207F30E0082E02C03595279535
:101860000A94E2F720FF0DC02081253010F42F5F8D
:101870000CC09B01082E01C0220F0A94EAF7C22B6C
:1018800005C02081222311F021502083DC0123E0B8
:10189000AA0FBB1F2A95E1F7A457BF4F1C912C2F0D
:1018A00030E0082E02C0359527950A94E2F7412FC3
:1018B000417050E08901017011274017510749F02C
:1018C0003091D70230613093D7023C9120FB30F940
:1018D0003C93019631968830910509F0BACFFF917B
:1018E000EF91CF91BF91AF919F918F917F916F9128
:1018F0005F914F913F912F911F910F910F900FBECC
:101900000F901F9018951F920F920FB60F921124EF
:101910008F929F92AF92BF92CF92DF92EF92FF92FF
:101920000F931F932F933F934F935F936F937F93E7
:101930008F939F93AF93BF93CF93DF93EF93FF93D7
:101940008091CE009091CF0001969093CF0080932C
:10195000CE00883E934048F080916B008F5F80936B
:101960006B001092CF001092CE0080916B008C33F0
:1019700038F080916A008F5F80936A0010926B004C
:1019800080916A008C3338F0809169008F5F80937A
:10199000690010926A0080916900883138F0809166
:1019A00068008F5F809368001092690080916800E2
:1019B000803240F0809167008F5F8093670081E004
:1019C00080936800809167008D3040F080916600C0
:1019D0008F5F8093660081E0809367008091990318
:1019E00090919A03019690939A0380939903809122
:1019F000DD029091DE02892B49F08091DD02909109
:101A0000DE0201979093DE028093DD028091DA027C
:101A10009091DB02892B49F08091DA029091DB02F0
:101A200001979093DB028093DA02C091CC00D091B1
:101A3000CD002196D093CD00C093CC008FEC91E0E7
:101A40000E94ED10C817D90749F48091D702806829
:101A50008093D7021092CD001092CC008091960313
:101A600090919703892B31F1809196039091970380
:101A700001979093970380939603E091D50238E005
:101A8000E39FF0011124E457FF4F808180FD12C0D5
:101A90008091110390911203019661F48091990352
:101AA00090919A03909312038093110310929703DD
:101AB000109296038091D70285FF04C08091D702CF
:101AC00086FD39C28091D70280628093D702C1EE31
:101AD000D0E035EDE32E32E0F32E01E010E0E881B6
:101AE000F981309709F498C08091D7028F7D809357
:101AF000D70281819281009721F00197928381839F
:101B00008BC08081882349F1813009F085C0E48150
:101B100038E0E39FF0011124E459FF4FA581B6811D
:101B20002C91C801078002C0880F991F0A94E2F720
:101B3000822B8C9388819981DC011496EC91B8E01A
:101B4000EB9FF0011124E459FF4F20812260208394
:101B50000E945C10198218825FC0E481B8E0EB9F9C
:101B6000F0011124E459FF4FA581B6819C919801A1
:101B7000078002C0220F331F0A94E2F7822F80955C
:101B800089238C93C880D980C801F601048002C0E3
:101B9000880F991F0A94E2F790911303892B809381
:101BA0001303E48128E0E29FF0011124E459FF4F80
:101BB000808181608083D6011496BC90B8E0BB9E82
:101BC000F0011124E459FF4F838194810E94ED10AC
:101BD000892B31F041E06B2DF60183810E9470006A
:101BE000E881F981E38128E0E29FF0011124E457C4
:101BF000FF4F808184FF02C081E001C080E00E942D
:101C00003506888199810E945C1019821882809122
:101C1000D70282608093D7022296EC16FD0609F067
:101C20005ECF8091D70280648093D702CFEDD2E05F
:101C300087E0C82E83E0D82EEE24E394F12C28E828
:101C4000A22E23E1B22E088119810115110509F494
:101C50006DC18091D7028F7B8093D702F801838179
:101C60009481009719F0019794838383D8018C9015
:101C7000B8E08B9EC0011124FC01E457FF4F4F01D7
:101C8000858196810E94E510D80112969C91913031
:101C900009F4CDC008F442C0923009F047C1812C4C
:101CA000912C082F10E0C801082C02C0959587954B
:101CB0000A94E2F780FF07C0E881F98140E0682DCF
:101CC00080810E947000BFEF8B1A9B0AE4E08E16A1
:101CD000910449F7A881B981C7010C9002C0880F0F
:101CE000991F0A94E2F790910D03892B80930D03BD
:101CF000EC9128E0E29FF0011124E457FF4F80812E
:101D000084608083EC9138E0E39FF0011124E45774
:101D1000FF4F878181508783CD0104C1D80113967D
:101D20002D913C911497232B09F479C01196EC91D5
:101D3000B8E0EB9FF0011124E457FF4F908190FF32
:101D4000F5C0812C912C082F10E0C801082C02C08E
:101D5000959587950A94E2F780FF07C0E881F9819D
:101D600040E0682D80810E947000EFEF8E1A9E0A7D
:101D7000F4E08F16910449F780910F0390911003BE
:101D8000019641F48091990390919A0390931003E6
:101D900080930F03E881F981C701008002C0880F9A
:101DA000991F0A94E2F790910D03892B80930D03FC
:101DB000C701018002C0880F991F0A94E2F7909131
:101DC0000E03892B80930E0381818093D502B092FC
:101DD0009703A0929603A08138E0A39FD00111241D
:101DE000A457BF4F8C9184608C93A08188E0A89FFA
:101DF000D0011124A457BF4F8C9180618C93A18195
:101E000098E0A99FD0011124A457BF4F8C918860FE
:101E10008C93A08128E0A29FD00111247AC0D40124
:101E200017968C911797815017968C9310C0D801F4
:101E30001196EC91B8E0EB9FF0011124E457FF4FAD
:101E4000908190FD06C0F401878181508783C8018D
:101E500069C0D80113962D913C911497232B09F05A
:101E600065C0812C912C082F10E0C801082C02C0FD
:101E7000959587950A94E2F780FF07C0E881F9817C
:101E800040E0682D80810E947000BFEF8B1A9B0A92
:101E9000E4E08E16910449F7E881F981C7010080DA
:101EA00002C0880F991F0A94E2F790910D03892BC5
:101EB00080930D03C701018002C0880F991F0A9407
:101EC000E2F790910E03892B80930E03A08128E006
:101ED000A29FD0011124A457BF4F8C9184608C9392
:101EE000A08138E0A39FD0011124A457BF4F8C914B
:101EF00080618C93A18188E0A89FD0011124A45710
:101F0000BF4F8C9188608C93A08198E0A99FD001ED
:101F10001124A457BF4F17968C911797815017968D
:101F20008C93CF010E945C10198218822296CC16E5
:101F3000DD0609F088CEFF91EF91DF91CF91BF913F
:101F4000AF919F918F917F916F915F914F913F9151
:101F50002F911F910F91FF90EF90DF90CF90BF9046
:101F6000AF909F908F900F900FBE0F901F9018957D
:101F7000991B79E004C0991F961708F0961B881FDB
:101F80007A95C9F7809508950F931F93CF93DF93A8
:101F90008230910510F482E090E0E0919D03F09191
:101FA0009E0320E030E0A0E0B0E0309719F14081DE
:101FB00051810281138148175907C8F0841795078A
:101FC00069F4109731F012960C93129713961C93A4
:101FD00027C000939D0310939E0322C02115310555
:101FE00019F04217530718F49A01BD01EF01DF0100
:101FF000F801DBCF21153105F9F0281B390B24300E
:10200000310580F48A819B816115710521F0FB0106
:102010009383828304C090939E0380939D03FE016B
:10202000329644C0FE01E20FF31F81939193225038
:102030003109398328833AC020919B0330919C0356
:10204000232B41F4209162003091630030939C0374
:1020500020939B0320916000309161002115310590
:1020600041F42DB73EB74091640050916500241BA8
:10207000350BE0919B03F0919C03E217F307A0F46A
:102080002E1B3F0B2817390778F0AC014E5F5F4FCE
:102090002417350748F04E0F5F1F50939C03409361
:1020A0009B038193919302C0E0E0F0E0CF01DF91C8
:1020B000CF911F910F910895CF93DF93009709F46B
:1020C00081C0FC01329713821282A0919D03B091CE
:1020D0009E03109781F420813181820F931F2091FC
:1020E0009B0330919C032817390751F5F0939C030B
:1020F000E0939B0367C0ED0120E030E0CE17DF07DF
:1021000040F44A815B819E0141155105F1F0EA01DD
:10211000F5CFD383C28340815181840F951FC817A7
:10212000D90759F488819981840F951F029691836C
:1021300080838A819B81938382832115310529F4D1
:10214000F0939E03E0939D033DC0E901FB83EA8386
:1021500049915991C40FD51FEC17FD0761F4808197
:102160009181840F951F0296E9019983888382816A
:1021700093819B838A83E0E0F0E012968D919C919D
:102180001397009719F0FD01DC01F7CF8D919C9119
:1021900011979D012E5F3F4F820F931F20919B034C
:1021A00030919C032817390769F4309729F410926D
:1021B0009E0310929D0302C013821282B0939C036F
:1021C000A0939B03DF91CF910895E199FECF9FBB30
:1021D0008EBBE09A99278DB30895A8E1B0E042E064
:1021E00050E00C941E11262FE199FECF9FBB8EBBB1
:1021F000E09A01970DB2021631F02DBB0FB6F8949C
:10220000E29AE19A0FBE08950196272F0E94F410DA
:102210000C94F310262FE199FECF9FBB8EBB2DBBF4
:102220000FB6F894E29AE19A0FBE019608950E94C3
:102230000A11272F0C940B11DC01CB01FC01E19951
:10224000FECF06C0FFBBEEBBE09A31960DB20D92F9
:0C22500041505040B8F70895F894FFCFBB
:10225C0000009F03200001010100000000AB01A35E
:10226C000135000000AD01A50135000100AF01A74B
:10227C000135000200B101A90135000300BB01B317
:10228C0001C3010000BC01B401C4010000BD01B5D3
:10229C0001C5010000BE01B601C6010000BF01B7B7
:1022AC0001C7010000C001B801C8010000C101B99B
:0C22BC0001C9010000C201BA01CA010002
:00000001FF
